{
  "contractName": "Calculator",
  "abi": [
    {
      "constant": true,
      "inputs": [],
      "name": "getResult",
      "outputs": [
        {
          "name": "",
          "type": "uint256"
        }
      ],
      "payable": false,
      "stateMutability": "view",
      "type": "function"
    },
    {
      "constant": false,
      "inputs": [
        {
          "name": "num1",
          "type": "uint256"
        },
        {
          "name": "num2",
          "type": "uint256"
        }
      ],
      "name": "addNumber",
      "outputs": [
        {
          "name": "",
          "type": "uint256"
        }
      ],
      "payable": false,
      "stateMutability": "nonpayable",
      "type": "function"
    },
    {
      "constant": false,
      "inputs": [
        {
          "name": "num1",
          "type": "uint256"
        },
        {
          "name": "num2",
          "type": "uint256"
        }
      ],
      "name": "substractNumber",
      "outputs": [
        {
          "name": "",
          "type": "uint256"
        }
      ],
      "payable": false,
      "stateMutability": "nonpayable",
      "type": "function"
    },
    {
      "constant": false,
      "inputs": [
        {
          "name": "num1",
          "type": "uint256"
        },
        {
          "name": "num2",
          "type": "uint256"
        }
      ],
      "name": "multiplyNumber",
      "outputs": [
        {
          "name": "",
          "type": "uint256"
        }
      ],
      "payable": false,
      "stateMutability": "nonpayable",
      "type": "function"
    },
    {
      "constant": false,
      "inputs": [
        {
          "name": "num1",
          "type": "uint256"
        },
        {
          "name": "num2",
          "type": "uint256"
        }
      ],
      "name": "divideNumber",
      "outputs": [
        {
          "name": "",
          "type": "uint256"
        }
      ],
      "payable": false,
      "stateMutability": "nonpayable",
      "type": "function"
    }
  ],
  "bytecode": "0x60806040526000805534801561001457600080fd5b5061025f806100246000396000f30060806040526004361061006d576000357c0100000000000000000000000000000000000000000000000000000000900463ffffffff1680630f3d020414610072578063625faf67146100bd5780639935500414610108578063be2a197114610153578063de2927891461019e575b600080fd5b34801561007e57600080fd5b506100a760048036038101908080359060200190929190803590602001909291905050506101c9565b6040518082815260200191505060405180910390f35b3480156100c957600080fd5b506100f260048036038101908080359060200190929190803590602001909291905050506101df565b6040518082815260200191505060405180910390f35b34801561011457600080fd5b5061013d60048036038101908080359060200190929190803590602001909291905050506101fe565b6040518082815260200191505060405180910390f35b34801561015f57600080fd5b506101886004803603810190808035906020019092919080359060200190929190505050610214565b6040518082815260200191505060405180910390f35b3480156101aa57600080fd5b506101b361022a565b6040518082815260200191505060405180910390f35b6000818301600081905550600054905092915050565b600081838115156101ec57fe5b04600081905550600054905092915050565b6000818303600081905550600054905092915050565b6000818302600081905550600054905092915050565b600080549050905600a165627a7a7230582045a845a831c3a60199e6bef59d6d80da9327e8b6bfd5856edfcba03fb6976d6e0029",
  "source": "pragma solidity ^0.4.24;\r\n\r\ncontract Calculator{\r\n  uint result=0;\r\n\r\n  function getResult() public constant returns (uint){\r\n    return result;\r\n  }\r\n\r\n  \r\n  function addNumber(uint num1, uint num2) public returns (uint) {\r\n    \r\n    result = num1+num2;\r\n    return result;\r\n  }\r\n\r\n  \r\n  function substractNumber(uint num1, uint num2) public returns (uint) {\r\n    result = num1-num2;\r\n    return result;\r\n  }\r\n\r\n  \r\n  function multiplyNumber(uint num1, uint num2) public returns (uint) {\r\n    result = num1*num2;\r\n    return result;\r\n  }\r\n\r\n  \r\n  function divideNumber(uint num1, uint num2) public returns (uint) {\r\n    result = num1/num2;\r\n    return result;\r\n  }\r\n\r\n}",
  "sourcePath": "F:\\Blockchain\\calc\\contracts\\Calculator.sol",
  "compiler": {
    "name": "solc",
    "version": "0.4.24+commit.e67f0147.Emscripten.clang"
  },
  "schemaVersion": "2.0.1",
  "updatedAt": "2018-07-10T16:13:23.492Z"
}